{
  "transactions": [
    {
      "hash": "0x02a1323d05ea7c184adb0f4093a03aeea296710ea3a2afe13df2961f56554f2c",
      "transactionType": "CALL",
      "contractName": null,
      "contractAddress": "0xc5cbb671096bcf08eb755c067a844d490a551423",
      "function": "mint(string)",
      "arguments": [
        "\"ipfs://QmSc9KPmzqPPfCn7my3qiUiFNp4CDevbghopuhcxPBUKfV?filename=ken.json\""
      ],
      "transaction": {
        "from": "0x0aff5c3ac89f0a91f713a9a789e343a78b838c3c",
        "to": "0xc5cbb671096bcf08eb755c067a844d490a551423",
        "gas": "0x3d3e9",
        "value": "0x0",
        "input": "0xd85d3d2700000000000000000000000000000000000000000000000000000000000000200000000000000000000000000000000000000000000000000000000000000047697066733a2f2f516d5363394b506d7a71505066436e376d793371695569464e7034434465766267686f70756863785042554b66563f66696c656e616d653d6b656e2e6a736f6e00000000000000000000000000000000000000000000000000",
        "nonce": "0x14",
        "chainId": "0xaa36a7"
      },
      "additionalContracts": [],
      "isFixedGasLimit": false
    }
  ],
  "receipts": [
    {
      "status": "0x1",
      "cumulativeGasUsed": "0xaec6c9",
      "logs": [
        {
          "address": "0xc5cbb671096bcf08eb755c067a844d490a551423",
          "topics": [
            "0xddf252ad1be2c89b69c2b068fc378daa952ba7f163c4a11628f55a4df523b3ef",
            "0x0000000000000000000000000000000000000000000000000000000000000000",
            "0x0000000000000000000000000aff5c3ac89f0a91f713a9a789e343a78b838c3c",
            "0x0000000000000000000000000000000000000000000000000000000000000000"
          ],
          "data": "0x",
          "blockHash": "0x71e7e54d79c9774a98155d7e0e6086c7c875838fe69dc484469667fbd35d0111",
          "blockNumber": "0x647b1e",
          "transactionHash": "0x02a1323d05ea7c184adb0f4093a03aeea296710ea3a2afe13df2961f56554f2c",
          "transactionIndex": "0x4b",
          "logIndex": "0x75",
          "removed": false
        }
      ],
      "logsBloom": "0x00000000000000000000000000000000000000000000000000000000000000000000000000000400000000000000000000000000000000000000000000000000000000000020000000000008000000000000000000000000000000000000000000000000020000000000000000000800000002000000000000000010000000000000000000000000000000000000000000000000000000000000000000000000000000000000000000000000000000000200000000000000000000000000000000000002000000000000000000000000000000000000000000000000000020000000000000000000000000000002000000000000000000000000000000000004",
      "type": "0x2",
      "transactionHash": "0x02a1323d05ea7c184adb0f4093a03aeea296710ea3a2afe13df2961f56554f2c",
      "transactionIndex": "0x4b",
      "blockHash": "0x71e7e54d79c9774a98155d7e0e6086c7c875838fe69dc484469667fbd35d0111",
      "blockNumber": "0x647b1e",
      "gasUsed": "0x2c570",
      "effectiveGasPrice": "0x74f9cd3d",
      "from": "0x0aff5c3ac89f0a91f713a9a789e343a78b838c3c",
      "to": "0xc5cbb671096bcf08eb755c067a844d490a551423",
      "contractAddress": null
    }
  ],
  "libraries": [],
  "pending": [],
  "returns": {},
  "timestamp": 1724814425,
  "chain": 11155111,
  "commit": "09de599"
}