{
  "transactions": [
    {
      "hash": "0x15c9688a2c7ce68dfdff6af1b33823588395f4c5c7c775acc91bddcbdf8b7c02",
      "transactionType": "CREATE",
      "contractName": "BoxV2",
      "contractAddress": "0xd14a205bd83dba713a6e474eca04552e7ee06907",
      "function": null,
      "arguments": null,
      "transaction": {
        "from": "0x0aff5c3ac89f0a91f713a9a789e343a78b838c3c",
        "gas": "0x86554",
        "value": "0x0",
        "input": "0x60a0604052306080523480156012575f80fd5b506080516106b26100395f395f81816101620152818161018b01526102ce01526106b25ff3fe608060405260043610610054575f3560e01c80633fb5c1cb146100585780634f1ef2861461007957806352d1902d1461008c57806354fd4d50146100b3578063ad3cb1cc146100c6578063f2c9ecd814610103575b5f80fd5b348015610063575f80fd5b506100776100723660046104df565b610116565b005b61007761008736600461050a565b610126565b348015610097575f80fd5b506100a061013c565b6040519081526020015b60405180910390f35b3480156100be575f80fd5b5060026100a0565b3480156100d1575f80fd5b506100f6604051806040016040528060058152602001640352e302e360dc1b81525081565b6040516100aa91906105db565b34801561010e575f80fd5b505f546100a0565b610121816001610610565b5f5550565b61012e610157565b61013882826101fd565b5050565b5f6101456102c3565b505f8051602061065d83398151915290565b306001600160a01b037f00000000000000000000000000000000000000000000000000000000000000001614806101dd57507f00000000000000000000000000000000000000000000000000000000000000006001600160a01b03166101d15f8051602061065d833981519152546001600160a01b031690565b6001600160a01b031614155b156101fb5760405163703e46dd60e11b815260040160405180910390fd5b565b816001600160a01b03166352d1902d6040518163ffffffff1660e01b8152600401602060405180830381865afa925050508015610257575060408051601f3d908101601f191682019092526102549181019061062f565b60015b61028457604051634c9c8ce360e01b81526001600160a01b03831660048201526024015b60405180910390fd5b5f8051602061065d83398151915281146102b457604051632a87526960e21b81526004810182905260240161027b565b6102be838361030c565b505050565b306001600160a01b037f000000000000000000000000000000000000000000000000000000000000000016146101fb5760405163703e46dd60e11b815260040160405180910390fd5b61031582610361565b6040516001600160a01b038316907fbc7cd75a20ee27fd9adebab32041f755214dbc6bffa90cc0225b39da2e5c2d3b905f90a2805115610359576102be82826103c4565b610138610438565b806001600160a01b03163b5f0361039657604051634c9c8ce360e01b81526001600160a01b038216600482015260240161027b565b5f8051602061065d83398151915280546001600160a01b0319166001600160a01b0392909216919091179055565b60605f80846001600160a01b0316846040516103e09190610646565b5f60405180830381855af49150503d805f8114610418576040519150601f19603f3d011682016040523d82523d5f602084013e61041d565b606091505b509150915061042d858383610457565b925050505b92915050565b34156101fb5760405163b398979f60e01b815260040160405180910390fd5b60608261046c57610467826104b6565b6104af565b815115801561048357506001600160a01b0384163b155b156104ac57604051639996b31560e01b81526001600160a01b038516600482015260240161027b565b50805b9392505050565b8051156104c65780518082602001fd5b604051630a12f52160e11b815260040160405180910390fd5b5f602082840312156104ef575f80fd5b5035919050565b634e487b7160e01b5f52604160045260245ffd5b5f806040838503121561051b575f80fd5b82356001600160a01b0381168114610531575f80fd5b9150602083013567ffffffffffffffff81111561054c575f80fd5b8301601f8101851361055c575f80fd5b803567ffffffffffffffff811115610576576105766104f6565b604051601f8201601f19908116603f0116810167ffffffffffffffff811182821017156105a5576105a56104f6565b6040528181528282016020018710156105bc575f80fd5b816020840160208301375f602083830101528093505050509250929050565b602081525f82518060208401528060208501604085015e5f604082850101526040601f19601f83011684010191505092915050565b8082018082111561043257634e487b7160e01b5f52601160045260245ffd5b5f6020828403121561063f575f80fd5b5051919050565b5f82518060208501845e5f92019182525091905056fe360894a13ba1a3210667c828492db98dca3e2076cc3735a920a3ca505d382bbca264697066735822122002a97d4cc62e7a59d53d938661b910ece674eb24df74c5d0b40ae3b58173629264736f6c634300081a0033",
        "nonce": "0x1a",
        "chainId": "0xaa36a7"
      },
      "additionalContracts": [],
      "isFixedGasLimit": false
    },
    {
      "hash": "0x5d59e473a3f7d5833edc5e797d765de48e3f9bfa6b53b49417e6925706cc6601",
      "transactionType": "CALL",
      "contractName": null,
      "contractAddress": "0x64030edc11aa4afaf5162d3ffa92d951883eee43",
      "function": "upgradeToAndCall(address,bytes)",
      "arguments": [
        "0xD14a205Bd83dba713A6E474EcA04552E7eE06907",
        "0x"
      ],
      "transaction": {
        "from": "0x0aff5c3ac89f0a91f713a9a789e343a78b838c3c",
        "to": "0x64030edc11aa4afaf5162d3ffa92d951883eee43",
        "gas": "0xd689",
        "value": "0x0",
        "input": "0x4f1ef286000000000000000000000000d14a205bd83dba713a6e474eca04552e7ee0690700000000000000000000000000000000000000000000000000000000000000400000000000000000000000000000000000000000000000000000000000000000",
        "nonce": "0x1b",
        "chainId": "0xaa36a7"
      },
      "additionalContracts": [],
      "isFixedGasLimit": false
    }
  ],
  "receipts": [
    {
      "status": "0x1",
      "cumulativeGasUsed": "0x1350e8b",
      "logs": [],
      "logsBloom": "0x00000000000000000000000000000000000000000000000000000000000000000000000000000000000000000000000000000000000000000000000000000000000000000000000000000000000000000000000000000000000000000000000000000000000000000000000000000000000000000000000000000000000000000000000000000000000000000000000000000000000000000000000000000000000000000000000000000000000000000000000000000000000000000000000000000000000000000000000000000000000000000000000000000000000000000000000000000000000000000000000000000000000000000000000000000000",
      "type": "0x2",
      "transactionHash": "0x15c9688a2c7ce68dfdff6af1b33823588395f4c5c7c775acc91bddcbdf8b7c02",
      "transactionIndex": "0x78",
      "blockHash": "0x7cb612334929ee3d762e6ae7bb79ff2494b27fc1f75dc285a86b89ac882a56f0",
      "blockNumber": "0x67017e",
      "gasUsed": "0x67555",
      "effectiveGasPrice": "0x55d33e4ac",
      "from": "0x0aff5c3ac89f0a91f713a9a789e343a78b838c3c",
      "to": null,
      "contractAddress": "0xd14a205bd83dba713a6e474eca04552e7ee06907"
    },
    {
      "status": "0x1",
      "cumulativeGasUsed": "0x135a13c",
      "logs": [
        {
          "address": "0x64030edc11aa4afaf5162d3ffa92d951883eee43",
          "topics": [
            "0xbc7cd75a20ee27fd9adebab32041f755214dbc6bffa90cc0225b39da2e5c2d3b",
            "0x000000000000000000000000d14a205bd83dba713a6e474eca04552e7ee06907"
          ],
          "data": "0x",
          "blockHash": "0x7cb612334929ee3d762e6ae7bb79ff2494b27fc1f75dc285a86b89ac882a56f0",
          "blockNumber": "0x67017e",
          "transactionHash": "0x5d59e473a3f7d5833edc5e797d765de48e3f9bfa6b53b49417e6925706cc6601",
          "transactionIndex": "0x79",
          "logIndex": "0x75",
          "removed": false
        }
      ],
      "logsBloom": "0x00000000000000000000000000000000400000000000000000002000000000000000000000000000000000000000000000000000000000000000000000000000000000000000000000000001000002100000000000000000000000000000000000000000000000000000000000000000000000000000000000000000000000000000000000000000000000000000000000000000000000000000000000000000000000000000000000000000080000800000000000000000000000000000000000000030000000000000000000000000000000000000000000000000000000000000000000000000000000000000000000000000000000000000000000000000",
      "type": "0x2",
      "transactionHash": "0x5d59e473a3f7d5833edc5e797d765de48e3f9bfa6b53b49417e6925706cc6601",
      "transactionIndex": "0x79",
      "blockHash": "0x7cb612334929ee3d762e6ae7bb79ff2494b27fc1f75dc285a86b89ac882a56f0",
      "blockNumber": "0x67017e",
      "gasUsed": "0x92b1",
      "effectiveGasPrice": "0x55d33e4ac",
      "from": "0x0aff5c3ac89f0a91f713a9a789e343a78b838c3c",
      "to": "0x64030edc11aa4afaf5162d3ffa92d951883eee43",
      "contractAddress": null
    }
  ],
  "libraries": [],
  "pending": [],
  "returns": {
    "0": {
      "internal_type": "address",
      "value": "0x64030eDC11aa4AFAf5162D3ffA92D951883EEe43"
    }
  },
  "timestamp": 1727174239,
  "chain": 11155111,
  "commit": "6b0a679"
}